{
  "_format": "hh-sol-artifact-1",
  "contractName": "Kyc",
  "sourceName": "contracts/Kyc.sol",
  "abi": [
    {
      "inputs": [],
      "stateMutability": "nonpayable",
      "type": "constructor"
    },
    {
      "anonymous": false,
      "inputs": [
        {
          "indexed": false,
          "internalType": "address",
          "name": "_ethAddress",
          "type": "address"
        },
        {
          "indexed": false,
          "internalType": "bool",
          "name": "_permission",
          "type": "bool"
        }
      ],
      "name": "BankBlockedFromKYC",
      "type": "event"
    },
    {
      "anonymous": false,
      "inputs": [
        {
          "indexed": false,
          "internalType": "address",
          "name": "_ethAddress",
          "type": "address"
        }
      ],
      "name": "BankRemoved",
      "type": "event"
    },
    {
      "anonymous": false,
      "inputs": [],
      "name": "ContractInitialized",
      "type": "event"
    },
    {
      "anonymous": false,
      "inputs": [
        {
          "indexed": false,
          "internalType": "string",
          "name": "_custName",
          "type": "string"
        }
      ],
      "name": "CustomerInfoModified",
      "type": "event"
    },
    {
      "anonymous": false,
      "inputs": [
        {
          "indexed": false,
          "internalType": "string",
          "name": "_custName",
          "type": "string"
        }
      ],
      "name": "CustomerRemoved",
      "type": "event"
    },
    {
      "anonymous": false,
      "inputs": [
        {
          "indexed": true,
          "internalType": "string",
          "name": "_custName",
          "type": "string"
        }
      ],
      "name": "CustomerRequestAdded",
      "type": "event"
    },
    {
      "anonymous": false,
      "inputs": [],
      "name": "CustomerRequestApproved",
      "type": "event"
    },
    {
      "anonymous": false,
      "inputs": [
        {
          "indexed": true,
          "internalType": "string",
          "name": "_custName",
          "type": "string"
        }
      ],
      "name": "CustomerRequestRemoved",
      "type": "event"
    },
    {
      "anonymous": false,
      "inputs": [
        {
          "indexed": false,
          "internalType": "address",
          "name": "_ethAddress",
          "type": "address"
        }
      ],
      "name": "NewBankCreated",
      "type": "event"
    },
    {
      "anonymous": false,
      "inputs": [
        {
          "indexed": false,
          "internalType": "string",
          "name": "_custName",
          "type": "string"
        },
        {
          "indexed": false,
          "internalType": "address",
          "name": "_ethAddress",
          "type": "address"
        }
      ],
      "name": "NewCustomerCreated",
      "type": "event"
    },
    {
      "inputs": [
        {
          "internalType": "string",
          "name": "_bankName",
          "type": "string"
        },
        {
          "internalType": "string",
          "name": "_regNumber",
          "type": "string"
        },
        {
          "internalType": "address",
          "name": "_ethAddress",
          "type": "address"
        }
      ],
      "name": "addBank",
      "outputs": [],
      "stateMutability": "nonpayable",
      "type": "function"
    },
    {
      "inputs": [
        {
          "internalType": "string",
          "name": "_custName",
          "type": "string"
        },
        {
          "internalType": "string",
          "name": "_custData",
          "type": "string"
        }
      ],
      "name": "addCustomer",
      "outputs": [],
      "stateMutability": "nonpayable",
      "type": "function"
    },
    {
      "inputs": [
        {
          "internalType": "string",
          "name": "_custName",
          "type": "string"
        },
        {
          "internalType": "string",
          "name": "_custData",
          "type": "string"
        }
      ],
      "name": "addNewCustomerRequest",
      "outputs": [],
      "stateMutability": "nonpayable",
      "type": "function"
    },
    {
      "inputs": [],
      "name": "bannedBanks",
      "outputs": [
        {
          "internalType": "uint256",
          "name": "",
          "type": "uint256"
        }
      ],
      "stateMutability": "view",
      "type": "function"
    },
    {
      "inputs": [
        {
          "internalType": "string",
          "name": "custName",
          "type": "string"
        }
      ],
      "name": "downVoteCustomer",
      "outputs": [],
      "stateMutability": "nonpayable",
      "type": "function"
    },
    {
      "inputs": [
        {
          "internalType": "address",
          "name": "_ethAddress",
          "type": "address"
        },
        {
          "internalType": "bool",
          "name": "_permission",
          "type": "bool"
        }
      ],
      "name": "editBankVoteStatus",
      "outputs": [],
      "stateMutability": "nonpayable",
      "type": "function"
    },
    {
      "inputs": [
        {
          "internalType": "string",
          "name": "custName",
          "type": "string"
        }
      ],
      "name": "getCustomerKycStatus",
      "outputs": [
        {
          "internalType": "bool",
          "name": "",
          "type": "bool"
        }
      ],
      "stateMutability": "view",
      "type": "function"
    },
    {
      "inputs": [
        {
          "internalType": "string",
          "name": "custName",
          "type": "string"
        },
        {
          "internalType": "string",
          "name": "custData",
          "type": "string"
        }
      ],
      "name": "modifyCustomer",
      "outputs": [],
      "stateMutability": "nonpayable",
      "type": "function"
    },
    {
      "inputs": [
        {
          "internalType": "address",
          "name": "_ethAddress",
          "type": "address"
        }
      ],
      "name": "removeBank",
      "outputs": [],
      "stateMutability": "nonpayable",
      "type": "function"
    },
    {
      "inputs": [
        {
          "internalType": "string",
          "name": "_custName",
          "type": "string"
        }
      ],
      "name": "removeCustomer",
      "outputs": [],
      "stateMutability": "nonpayable",
      "type": "function"
    },
    {
      "inputs": [
        {
          "internalType": "string",
          "name": "_custName",
          "type": "string"
        }
      ],
      "name": "removeCustomerRequest",
      "outputs": [],
      "stateMutability": "nonpayable",
      "type": "function"
    },
    {
      "inputs": [
        {
          "internalType": "address",
          "name": "suspiciousBankAddress",
          "type": "address"
        }
      ],
      "name": "reportSuspectedBank",
      "outputs": [],
      "stateMutability": "nonpayable",
      "type": "function"
    },
    {
      "inputs": [],
      "name": "threshold",
      "outputs": [
        {
          "internalType": "uint256",
          "name": "",
          "type": "uint256"
        }
      ],
      "stateMutability": "view",
      "type": "function"
    },
    {
      "inputs": [],
      "name": "totalBanks",
      "outputs": [
        {
          "internalType": "uint256",
          "name": "",
          "type": "uint256"
        }
      ],
      "stateMutability": "view",
      "type": "function"
    },
    {
      "inputs": [
        {
          "internalType": "string",
          "name": "custName",
          "type": "string"
        }
      ],
      "name": "upVoteCustomer",
      "outputs": [],
      "stateMutability": "nonpayable",
      "type": "function"
    },
    {
      "inputs": [
        {
          "internalType": "string",
          "name": "custName",
          "type": "string"
        }
      ],
      "name": "viewCustomerData",
      "outputs": [
        {
          "internalType": "string",
          "name": "",
          "type": "string"
        },
        {
          "internalType": "bool",
          "name": "",
          "type": "bool"
        }
      ],
      "stateMutability": "view",
      "type": "function"
    }
  ],
  "bytecode": "0x60806040526000600155600060025534801561001a57600080fd5b507f9f4eefba9f06bdd612ec93892ddb6d0bf72365e3835c1159ce2f0b9f172bfcbd60405160405180910390a1336000806101000a81548173ffffffffffffffffffffffffffffffffffffffff021916908373ffffffffffffffffffffffffffffffffffffffff160217905550613837806100966000396000f3fe608060405234801561001057600080fd5b50600436106101005760003560e01c80637bde530511610097578063d318f52a11610066578063d318f52a14610282578063f01cc0a61461029e578063f72860ca146102bc578063fc55ea9d146102d857610100565b80637bde53051461021057806382e0438a1461022c5780639649650c14610248578063ccaf495d1461026457610100565b80634a6c2f61116100d35780634a6c2f6114610177578063569e64bc146101a857806358f1a736146101c457806376105516146101e057610100565b806322bdc74f146101055780633190abc01461012157806342cde4e81461013d57806347f886891461015b575b600080fd5b61011f600480360381019061011a9190612809565b6102f4565b005b61013b60048036038101906101369190612809565b610716565b005b6101456109e3565b604051610152919061289a565b60405180910390f35b61017560048036038101906101709190612913565b6109e8565b005b610191600480360381019061018c919061299e565b610e11565b60405161019f929190612a81565b60405180910390f35b6101c260048036038101906101bd919061299e565b610fa9565b005b6101de60048036038101906101d99190612ab1565b6113be565b005b6101fa60048036038101906101f5919061299e565b61159d565b6040516102079190612ade565b60405180910390f35b61022a60048036038101906102259190612b25565b611684565b005b6102466004803603810190610241919061299e565b61196a565b005b610262600480360381019061025d9190612ab1565b611d7f565b005b61026c61207b565b604051610279919061289a565b60405180910390f35b61029c6004803603810190610297919061299e565b612081565b005b6102a66122ad565b6040516102b3919061289a565b60405180910390f35b6102d660048036038101906102d19190612809565b6122b3565b005b6102f260048036038101906102ed919061299e565b612424565b005b600460003373ffffffffffffffffffffffffffffffffffffffff1673ffffffffffffffffffffffffffffffffffffffff16815260200190815260200160002060010160009054906101000a900473ffffffffffffffffffffffffffffffffffffffff1673ffffffffffffffffffffffffffffffffffffffff163373ffffffffffffffffffffffffffffffffffffffff16146103c4576040517f08c379a00000000000000000000000000000000000000000000000000000000081526004016103bb90612bd7565b60405180910390fd5b600460003373ffffffffffffffffffffffffffffffffffffffff1673ffffffffffffffffffffffffffffffffffffffff16815260200190815260200160002060040160009054906101000a900460ff16610453576040517f08c379a000000000000000000000000000000000000000000000000000000000815260040161044a90612c69565b60405180910390fd5b600073ffffffffffffffffffffffffffffffffffffffff1660038360405161047b9190612cc5565b908152602001604051809103902060040160009054906101000a900473ffffffffffffffffffffffffffffffffffffffff1673ffffffffffffffffffffffffffffffffffffffff1603610503576040517f08c379a00000000000000000000000000000000000000000000000000000000081526004016104fa90612d4e565b60405180910390fd5b600073ffffffffffffffffffffffffffffffffffffffff1660068360405161052b9190612cc5565b908152602001604051809103902060020160009054906101000a900473ffffffffffffffffffffffffffffffffffffffff1673ffffffffffffffffffffffffffffffffffffffff16146105b3576040517f08c379a00000000000000000000000000000000000000000000000000000000081526004016105aa90612de0565b60405180910390fd5b60405180606001604052808381526020018281526020013373ffffffffffffffffffffffffffffffffffffffff168152506006836040516105f49190612cc5565b90815260200160405180910390206000820151816000019081610617919061300c565b50602082015181600101908161062d919061300c565b5060408201518160020160006101000a81548173ffffffffffffffffffffffffffffffffffffffff021916908373ffffffffffffffffffffffffffffffffffffffff160217905550905050600460003373ffffffffffffffffffffffffffffffffffffffff1673ffffffffffffffffffffffffffffffffffffffff16815260200190815260200160002060030160008154809291906106cb9061310d565b9190505550816040516106de9190612cc5565b60405180910390207f7f038cff7eb4cb5cd868f4cf01c72900b4418a1efd886dde9c1322bedc420bb960405160405180910390a25050565b600460003373ffffffffffffffffffffffffffffffffffffffff1673ffffffffffffffffffffffffffffffffffffffff16815260200190815260200160002060010160009054906101000a900473ffffffffffffffffffffffffffffffffffffffff1673ffffffffffffffffffffffffffffffffffffffff163373ffffffffffffffffffffffffffffffffffffffff16146107e6576040517f08c379a00000000000000000000000000000000000000000000000000000000081526004016107dd90612bd7565b60405180910390fd5b600073ffffffffffffffffffffffffffffffffffffffff1660038360405161080e9190612cc5565b908152602001604051809103902060040160009054906101000a900473ffffffffffffffffffffffffffffffffffffffff1673ffffffffffffffffffffffffffffffffffffffff1614610896576040517f08c379a000000000000000000000000000000000000000000000000000000000815260040161088d906131c7565b60405180910390fd5b6040518060c0016040528083815260200182815260200160008152602001600081526020013373ffffffffffffffffffffffffffffffffffffffff168152602001600015158152506003836040516108ee9190612cc5565b90815260200160405180910390206000820151816000019081610911919061300c565b506020820151816001019081610927919061300c565b50604082015181600201556060820151816003015560808201518160040160006101000a81548173ffffffffffffffffffffffffffffffffffffffff021916908373ffffffffffffffffffffffffffffffffffffffff16021790555060a08201518160040160146101000a81548160ff0219169083151502179055509050507fc5c314d5fd929811eb220c62c3f05ff02f12625ac0f720a046a601b12aa995ce82336040516109d79291906131f6565b60405180910390a15050565b600581565b60008054906101000a900473ffffffffffffffffffffffffffffffffffffffff1673ffffffffffffffffffffffffffffffffffffffff163373ffffffffffffffffffffffffffffffffffffffff1614610a76576040517f08c379a0000000000000000000000000000000000000000000000000000000008152600401610a6d90613272565b60405180910390fd5b600073ffffffffffffffffffffffffffffffffffffffff16600460008373ffffffffffffffffffffffffffffffffffffffff1673ffffffffffffffffffffffffffffffffffffffff16815260200190815260200160002060010160009054906101000a900473ffffffffffffffffffffffffffffffffffffffff1673ffffffffffffffffffffffffffffffffffffffff1614610b47576040517f08c379a0000000000000000000000000000000000000000000000000000000008152600401610b3e90613304565b60405180910390fd5b600073ffffffffffffffffffffffffffffffffffffffff16600583604051610b6f9190612cc5565b908152602001604051809103902060009054906101000a900473ffffffffffffffffffffffffffffffffffffffff1673ffffffffffffffffffffffffffffffffffffffff1614610bf4576040517f08c379a0000000000000000000000000000000000000000000000000000000008152600401610beb90613396565b60405180910390fd5b6040518061010001604052808481526020018273ffffffffffffffffffffffffffffffffffffffff16815260200160008152602001600081526020016001151581526020018381526020016000815260200160011515815250600460008373ffffffffffffffffffffffffffffffffffffffff1673ffffffffffffffffffffffffffffffffffffffff1681526020019081526020016000206000820151816000019081610ca1919061300c565b5060208201518160010160006101000a81548173ffffffffffffffffffffffffffffffffffffffff021916908373ffffffffffffffffffffffffffffffffffffffff160217905550604082015181600201556060820151816003015560808201518160040160006101000a81548160ff02191690831515021790555060a0820151816005019081610d32919061300c565b5060c0820151816006015560e08201518160070160006101000a81548160ff02191690831515021790555090505080600583604051610d719190612cc5565b908152602001604051809103902060006101000a81548173ffffffffffffffffffffffffffffffffffffffff021916908373ffffffffffffffffffffffffffffffffffffffff16021790555060016000815480929190610dd09061310d565b91905055507f1d2556d6022971b5c066339da9f6bcfbc614ff566c45af0d535af7c6ffd4998281604051610e0491906133b6565b60405180910390a1505050565b606060008073ffffffffffffffffffffffffffffffffffffffff16600384604051610e3c9190612cc5565b908152602001604051809103902060040160009054906101000a900473ffffffffffffffffffffffffffffffffffffffff1673ffffffffffffffffffffffffffffffffffffffff1603610ec4576040517f08c379a0000000000000000000000000000000000000000000000000000000008152600401610ebb9061341d565b60405180910390fd5b600383604051610ed49190612cc5565b9081526020016040518091039020600101600384604051610ef59190612cc5565b908152602001604051809103902060040160149054906101000a900460ff16818054610f2090612e2f565b80601f0160208091040260200160405190810160405280929190818152602001828054610f4c90612e2f565b8015610f995780601f10610f6e57610100808354040283529160200191610f99565b820191906000526020600020905b815481529060010190602001808311610f7c57829003601f168201915b5050505050915091509150915091565b600460003373ffffffffffffffffffffffffffffffffffffffff1673ffffffffffffffffffffffffffffffffffffffff16815260200190815260200160002060040160009054906101000a900460ff16611038576040517f08c379a000000000000000000000000000000000000000000000000000000000815260040161102f906134af565b60405180910390fd5b600073ffffffffffffffffffffffffffffffffffffffff166003826040516110609190612cc5565b908152602001604051809103902060040160009054906101000a900473ffffffffffffffffffffffffffffffffffffffff1673ffffffffffffffffffffffffffffffffffffffff16036110e8576040517f08c379a00000000000000000000000000000000000000000000000000000000081526004016110df9061341d565b60405180910390fd5b60006008826040516110fa9190612cc5565b908152602001604051809103902060003373ffffffffffffffffffffffffffffffffffffffff1673ffffffffffffffffffffffffffffffffffffffff16815260200190815260200160002054146111e457600060088260405161115d9190612cc5565b908152602001604051809103902060003373ffffffffffffffffffffffffffffffffffffffff1673ffffffffffffffffffffffffffffffffffffffff168152602001908152602001600020819055506003816040516111bc9190612cc5565b908152602001604051809103902060030160008154809291906111de906134cf565b91905055505b60006007826040516111f69190612cc5565b908152602001604051809103902060003373ffffffffffffffffffffffffffffffffffffffff1673ffffffffffffffffffffffffffffffffffffffff16815260200190815260200160002054036113bb576003816040516112579190612cc5565b908152602001604051809103902060020160008154809291906112799061310d565b919050555060006003826040516112909190612cc5565b9081526020016040518091039020600301546003836040516112b29190612cc5565b9081526020016040518091039020600201541015905060056002546001546112da91906134f8565b116112e55780611321565b60036001546112f4919061355b565b6003836040516113049190612cc5565b9081526020016040518091039020600301541080156113205750805b5b6003836040516113319190612cc5565b908152602001604051809103902060040160146101000a81548160ff0219169083151502179055504260078360405161136a9190612cc5565b908152602001604051809103902060003373ffffffffffffffffffffffffffffffffffffffff1673ffffffffffffffffffffffffffffffffffffffff16815260200190815260200160002081905550505b50565b600073ffffffffffffffffffffffffffffffffffffffff16600460008373ffffffffffffffffffffffffffffffffffffffff1673ffffffffffffffffffffffffffffffffffffffff16815260200190815260200160002060010160009054906101000a900473ffffffffffffffffffffffffffffffffffffffff1673ffffffffffffffffffffffffffffffffffffffff160361148f576040517f08c379a0000000000000000000000000000000000000000000000000000000008152600401611486906135d8565b60405180910390fd5b600460008273ffffffffffffffffffffffffffffffffffffffff1673ffffffffffffffffffffffffffffffffffffffff16815260200190815260200160002060060160008154809291906114e29061310d565b919050555060036001546114f6919061355b565b600460008373ffffffffffffffffffffffffffffffffffffffff1673ffffffffffffffffffffffffffffffffffffffff168152602001908152602001600020600601541061159a576000600460008373ffffffffffffffffffffffffffffffffffffffff1673ffffffffffffffffffffffffffffffffffffffff16815260200190815260200160002060040160006101000a81548160ff0219169083151502179055505b50565b60008073ffffffffffffffffffffffffffffffffffffffff166003836040516115c69190612cc5565b908152602001604051809103902060040160009054906101000a900473ffffffffffffffffffffffffffffffffffffffff1673ffffffffffffffffffffffffffffffffffffffff160361164e576040517f08c379a00000000000000000000000000000000000000000000000000000000081526004016116459061341d565b60405180910390fd5b60038260405161165e9190612cc5565b908152602001604051809103902060040160149054906101000a900460ff169050919050565b60008054906101000a900473ffffffffffffffffffffffffffffffffffffffff1673ffffffffffffffffffffffffffffffffffffffff163373ffffffffffffffffffffffffffffffffffffffff1614611712576040517f08c379a000000000000000000000000000000000000000000000000000000000815260040161170990613272565b60405180910390fd5b600073ffffffffffffffffffffffffffffffffffffffff16600460008473ffffffffffffffffffffffffffffffffffffffff1673ffffffffffffffffffffffffffffffffffffffff16815260200190815260200160002060010160009054906101000a900473ffffffffffffffffffffffffffffffffffffffff1673ffffffffffffffffffffffffffffffffffffffff16036117e3576040517f08c379a00000000000000000000000000000000000000000000000000000000081526004016117da90613644565b60405180910390fd5b8015801561183d5750600460008373ffffffffffffffffffffffffffffffffffffffff1673ffffffffffffffffffffffffffffffffffffffff16815260200190815260200160002060040160009054906101000a900460ff165b1561185b57600260008154809291906118559061310d565b91905055505b8080156118b55750600460008373ffffffffffffffffffffffffffffffffffffffff1673ffffffffffffffffffffffffffffffffffffffff16815260200190815260200160002060040160009054906101000a900460ff16155b156118d357600260008154809291906118cd906134cf565b91905055505b80600460008473ffffffffffffffffffffffffffffffffffffffff1673ffffffffffffffffffffffffffffffffffffffff16815260200190815260200160002060040160006101000a81548160ff0219169083151502179055507fc6d9180e03faefb8c3e71c59d02f9d7c17ee87507d75725f6cd8999b10a23526828260405161195e929190613664565b60405180910390a15050565b600460003373ffffffffffffffffffffffffffffffffffffffff1673ffffffffffffffffffffffffffffffffffffffff16815260200190815260200160002060040160009054906101000a900460ff166119f9576040517f08c379a00000000000000000000000000000000000000000000000000000000081526004016119f0906134af565b60405180910390fd5b600073ffffffffffffffffffffffffffffffffffffffff16600382604051611a219190612cc5565b908152602001604051809103902060040160009054906101000a900473ffffffffffffffffffffffffffffffffffffffff1673ffffffffffffffffffffffffffffffffffffffff1603611aa9576040517f08c379a0000000000000000000000000000000000000000000000000000000008152600401611aa09061341d565b60405180910390fd5b6000600782604051611abb9190612cc5565b908152602001604051809103902060003373ffffffffffffffffffffffffffffffffffffffff1673ffffffffffffffffffffffffffffffffffffffff1681526020019081526020016000205414611ba5576000600782604051611b1e9190612cc5565b908152602001604051809103902060003373ffffffffffffffffffffffffffffffffffffffff1673ffffffffffffffffffffffffffffffffffffffff16815260200190815260200160002081905550600381604051611b7d9190612cc5565b90815260200160405180910390206002016000815480929190611b9f906134cf565b91905055505b6000600882604051611bb79190612cc5565b908152602001604051809103902060003373ffffffffffffffffffffffffffffffffffffffff1673ffffffffffffffffffffffffffffffffffffffff1681526020019081526020016000205403611d7c57600381604051611c189190612cc5565b90815260200160405180910390206003016000815480929190611c3a9061310d565b91905055506000600382604051611c519190612cc5565b908152602001604051809103902060030154600383604051611c739190612cc5565b908152602001604051809103902060020154101590506005600254600154611c9b91906134f8565b11611ca65780611ce2565b6003600154611cb5919061355b565b600383604051611cc59190612cc5565b908152602001604051809103902060030154108015611ce15750805b5b600383604051611cf29190612cc5565b908152602001604051809103902060040160146101000a81548160ff02191690831515021790555042600883604051611d2b9190612cc5565b908152602001604051809103902060003373ffffffffffffffffffffffffffffffffffffffff1673ffffffffffffffffffffffffffffffffffffffff16815260200190815260200160002081905550505b50565b60008054906101000a900473ffffffffffffffffffffffffffffffffffffffff1673ffffffffffffffffffffffffffffffffffffffff163373ffffffffffffffffffffffffffffffffffffffff1614611e0d576040517f08c379a0000000000000000000000000000000000000000000000000000000008152600401611e0490613272565b60405180910390fd5b600073ffffffffffffffffffffffffffffffffffffffff16600460008373ffffffffffffffffffffffffffffffffffffffff1673ffffffffffffffffffffffffffffffffffffffff16815260200190815260200160002060010160009054906101000a900473ffffffffffffffffffffffffffffffffffffffff1673ffffffffffffffffffffffffffffffffffffffff1603611ede576040517f08c379a0000000000000000000000000000000000000000000000000000000008152600401611ed590613644565b60405180910390fd5b6005600460008373ffffffffffffffffffffffffffffffffffffffff1673ffffffffffffffffffffffffffffffffffffffff168152602001908152602001600020600501604051611f2f9190613710565b908152602001604051809103902060006101000a81549073ffffffffffffffffffffffffffffffffffffffff0219169055600460008273ffffffffffffffffffffffffffffffffffffffff1673ffffffffffffffffffffffffffffffffffffffff16815260200190815260200160002060008082016000611fb09190612652565b6001820160006101000a81549073ffffffffffffffffffffffffffffffffffffffff0219169055600282016000905560038201600090556004820160006101000a81549060ff021916905560058201600061200b9190612652565b60068201600090556007820160006101000a81549060ff021916905550506001600081548092919061203c906134cf565b91905055507f6c6b75303e41e95dbe82479ed0a94ba1d8a0d5eea16a922bb68e5daeedb188678160405161207091906133b6565b60405180910390a150565b60025481565b600460003373ffffffffffffffffffffffffffffffffffffffff1673ffffffffffffffffffffffffffffffffffffffff16815260200190815260200160002060010160009054906101000a900473ffffffffffffffffffffffffffffffffffffffff1673ffffffffffffffffffffffffffffffffffffffff163373ffffffffffffffffffffffffffffffffffffffff1614612151576040517f08c379a000000000000000000000000000000000000000000000000000000000815260040161214890612bd7565b60405180910390fd5b3373ffffffffffffffffffffffffffffffffffffffff166006826040516121789190612cc5565b908152602001604051809103902060020160009054906101000a900473ffffffffffffffffffffffffffffffffffffffff1673ffffffffffffffffffffffffffffffffffffffff1614612200576040517f08c379a00000000000000000000000000000000000000000000000000000000081526004016121f7906137bf565b60405180910390fd5b6006816040516122109190612cc5565b90815260200160405180910390206000808201600061222f9190612652565b60018201600061223f9190612652565b6002820160006101000a81549073ffffffffffffffffffffffffffffffffffffffff02191690555050806040516122769190612cc5565b60405180910390207ff7dc758555bfa909d5a2b7b227e193f075b6522a1528fb290170975b0838930f60405160405180910390a250565b60015481565b600073ffffffffffffffffffffffffffffffffffffffff166003836040516122db9190612cc5565b908152602001604051809103902060040160009054906101000a900473ffffffffffffffffffffffffffffffffffffffff1673ffffffffffffffffffffffffffffffffffffffff1603612363576040517f08c379a000000000000000000000000000000000000000000000000000000000815260040161235a9061341d565b60405180910390fd5b61236c82612081565b8060038360405161237d9190612cc5565b9081526020016040518091039020600101908161239a919061300c565b5060006003836040516123ad9190612cc5565b90815260200160405180910390206002018190555060006003836040516123d49190612cc5565b9081526020016040518091039020600301819055507f9e987ba1fb2dd10eac4951957d9da9c5536d003ef3a18689b5042b8412dab6cf8260405161241891906137df565b60405180910390a15050565b600073ffffffffffffffffffffffffffffffffffffffff1660038260405161244c9190612cc5565b908152602001604051809103902060040160009054906101000a900473ffffffffffffffffffffffffffffffffffffffff1673ffffffffffffffffffffffffffffffffffffffff16036124d4576040517f08c379a00000000000000000000000000000000000000000000000000000000081526004016124cb9061341d565b60405180910390fd5b3373ffffffffffffffffffffffffffffffffffffffff166003826040516124fb9190612cc5565b908152602001604051809103902060040160009054906101000a900473ffffffffffffffffffffffffffffffffffffffff1673ffffffffffffffffffffffffffffffffffffffff1614612583576040517f08c379a000000000000000000000000000000000000000000000000000000000815260040161257a906137bf565b60405180910390fd5b6003816040516125939190612cc5565b9081526020016040518091039020600080820160006125b29190612652565b6001820160006125c29190612652565b600282016000905560038201600090556004820160006101000a81549073ffffffffffffffffffffffffffffffffffffffff02191690556004820160146101000a81549060ff0219169055505061261881612081565b7ffb9da93d4375e6d1bd8562efc822a19c8edc5ab8904ccf1490a651c4020ced428160405161264791906137df565b60405180910390a150565b50805461265e90612e2f565b6000825580601f10612670575061268f565b601f01602090049060005260206000209081019061268e9190612692565b5b50565b5b808211156126ab576000816000905550600101612693565b5090565b6000604051905090565b600080fd5b600080fd5b600080fd5b600080fd5b6000601f19601f8301169050919050565b7f4e487b7100000000000000000000000000000000000000000000000000000000600052604160045260246000fd5b612716826126cd565b810181811067ffffffffffffffff82111715612735576127346126de565b5b80604052505050565b60006127486126af565b9050612754828261270d565b919050565b600067ffffffffffffffff821115612774576127736126de565b5b61277d826126cd565b9050602081019050919050565b82818337600083830152505050565b60006127ac6127a784612759565b61273e565b9050828152602081018484840111156127c8576127c76126c8565b5b6127d384828561278a565b509392505050565b600082601f8301126127f0576127ef6126c3565b5b8135612800848260208601612799565b91505092915050565b600080604083850312156128205761281f6126b9565b5b600083013567ffffffffffffffff81111561283e5761283d6126be565b5b61284a858286016127db565b925050602083013567ffffffffffffffff81111561286b5761286a6126be565b5b612877858286016127db565b9150509250929050565b6000819050919050565b61289481612881565b82525050565b60006020820190506128af600083018461288b565b92915050565b600073ffffffffffffffffffffffffffffffffffffffff82169050919050565b60006128e0826128b5565b9050919050565b6128f0816128d5565b81146128fb57600080fd5b50565b60008135905061290d816128e7565b92915050565b60008060006060848603121561292c5761292b6126b9565b5b600084013567ffffffffffffffff81111561294a576129496126be565b5b612956868287016127db565b935050602084013567ffffffffffffffff811115612977576129766126be565b5b612983868287016127db565b9250506040612994868287016128fe565b9150509250925092565b6000602082840312156129b4576129b36126b9565b5b600082013567ffffffffffffffff8111156129d2576129d16126be565b5b6129de848285016127db565b91505092915050565b600081519050919050565b600082825260208201905092915050565b60005b83811015612a21578082015181840152602081019050612a06565b60008484015250505050565b6000612a38826129e7565b612a4281856129f2565b9350612a52818560208601612a03565b612a5b816126cd565b840191505092915050565b60008115159050919050565b612a7b81612a66565b82525050565b60006040820190508181036000830152612a9b8185612a2d565b9050612aaa6020830184612a72565b9392505050565b600060208284031215612ac757612ac66126b9565b5b6000612ad5848285016128fe565b91505092915050565b6000602082019050612af36000830184612a72565b92915050565b612b0281612a66565b8114612b0d57600080fd5b50565b600081359050612b1f81612af9565b92915050565b60008060408385031215612b3c57612b3b6126b9565b5b6000612b4a858286016128fe565b9250506020612b5b85828601612b10565b9150509250929050565b7f4f6e6c792062616e6b732061726520616c6c6f77656420746f207472616e736160008201527f6374000000000000000000000000000000000000000000000000000000000000602082015250565b6000612bc16022836129f2565b9150612bcc82612b65565b604082019050919050565b60006020820190508181036000830152612bf081612bb4565b9050919050565b7f5265717565737465642042616e6b20646f65736e27742068617665204b59432060008201527f50726976696c6567650000000000000000000000000000000000000000000000602082015250565b6000612c536029836129f2565b9150612c5e82612bf7565b604082019050919050565b60006020820190508181036000830152612c8281612c46565b9050919050565b600081905092915050565b6000612c9f826129e7565b612ca98185612c89565b9350612cb9818560208601612a03565b80840191505092915050565b6000612cd18284612c94565b915081905092915050565b7f52657175657374656420437573746f6d657220646f6573206e6f74206578697360008201527f7400000000000000000000000000000000000000000000000000000000000000602082015250565b6000612d386021836129f2565b9150612d4382612cdc565b604082019050919050565b60006020820190508181036000830152612d6781612d2b565b9050919050565b7f41204b5943205265717565737420697320616c72656164792070656e64696e6760008201527f2077697468207468697320437573746f6d657200000000000000000000000000602082015250565b6000612dca6033836129f2565b9150612dd582612d6e565b604082019050919050565b60006020820190508181036000830152612df981612dbd565b9050919050565b7f4e487b7100000000000000000000000000000000000000000000000000000000600052602260045260246000fd5b60006002820490506001821680612e4757607f821691505b602082108103612e5a57612e59612e00565b5b50919050565b60008190508160005260206000209050919050565b60006020601f8301049050919050565b600082821b905092915050565b600060088302612ec27fffffffffffffffffffffffffffffffffffffffffffffffffffffffffffffffff82612e85565b612ecc8683612e85565b95508019841693508086168417925050509392505050565b6000819050919050565b6000612f09612f04612eff84612881565b612ee4565b612881565b9050919050565b6000819050919050565b612f2383612eee565b612f37612f2f82612f10565b848454612e92565b825550505050565b600090565b612f4c612f3f565b612f57818484612f1a565b505050565b5b81811015612f7b57612f70600082612f44565b600181019050612f5d565b5050565b601f821115612fc057612f9181612e60565b612f9a84612e75565b81016020851015612fa9578190505b612fbd612fb585612e75565b830182612f5c565b50505b505050565b600082821c905092915050565b6000612fe360001984600802612fc5565b1980831691505092915050565b6000612ffc8383612fd2565b9150826002028217905092915050565b613015826129e7565b67ffffffffffffffff81111561302e5761302d6126de565b5b6130388254612e2f565b613043828285612f7f565b600060209050601f8311600181146130765760008415613064578287015190505b61306e8582612ff0565b8655506130d6565b601f19841661308486612e60565b60005b828110156130ac57848901518255600182019150602085019450602081019050613087565b868310156130c957848901516130c5601f891682612fd2565b8355505b6001600288020188555050505b505050505050565b7f4e487b7100000000000000000000000000000000000000000000000000000000600052601160045260246000fd5b600061311882612881565b91507fffffffffffffffffffffffffffffffffffffffffffffffffffffffffffffffff820361314a576131496130de565b5b600182019050919050565b7f52657175657374656420437573746f6d657220616c726561647920657869737460008201527f7300000000000000000000000000000000000000000000000000000000000000602082015250565b60006131b16021836129f2565b91506131bc82613155565b604082019050919050565b600060208201905081810360008301526131e0816131a4565b9050919050565b6131f0816128d5565b82525050565b600060408201905081810360008301526132108185612a2d565b905061321f60208301846131e7565b9392505050565b7f4f6e6c792061646d696e20697320616c6c6f7765640000000000000000000000600082015250565b600061325c6015836129f2565b915061326782613226565b602082019050919050565b6000602082019050818103600083015261328b8161324f565b9050919050565b7f412042616e6b20616c72656164792065786973747320776974682073616d652060008201527f4164647265737300000000000000000000000000000000000000000000000000602082015250565b60006132ee6027836129f2565b91506132f982613292565b604082019050919050565b6000602082019050818103600083015261331d816132e1565b9050919050565b7f412042616e6b20616c72656164792065786973747320776974682073616d652060008201527f726567697374726174696f6e206e756d62657200000000000000000000000000602082015250565b60006133806033836129f2565b915061338b82613324565b604082019050919050565b600060208201905081810360008301526133af81613373565b9050919050565b60006020820190506133cb60008301846131e7565b92915050565b7f52657175657374656420437573746f6d6572206e6f7420666f756e6400000000600082015250565b6000613407601c836129f2565b9150613412826133d1565b602082019050919050565b60006020820190508181036000830152613436816133fa565b9050919050565b7f5265717565737465642042616e6b20646f6573206e6f74206861766520566f7460008201527f696e672050726976696c65676500000000000000000000000000000000000000602082015250565b6000613499602d836129f2565b91506134a48261343d565b604082019050919050565b600060208201905081810360008301526134c88161348c565b9050919050565b60006134da82612881565b9150600082036134ed576134ec6130de565b5b600182039050919050565b600061350382612881565b915061350e83612881565b9250828203905081811115613526576135256130de565b5b92915050565b7f4e487b7100000000000000000000000000000000000000000000000000000000600052601260045260246000fd5b600061356682612881565b915061357183612881565b9250826135815761358061352c565b5b828204905092915050565b7f5265717565737465642042616e6b206e6f7420666f756e640000000000000000600082015250565b60006135c26018836129f2565b91506135cd8261358c565b602082019050919050565b600060208201905081810360008301526135f1816135b5565b9050919050565b7f42616e6b206e6f7420666f756e64000000000000000000000000000000000000600082015250565b600061362e600e836129f2565b9150613639826135f8565b602082019050919050565b6000602082019050818103600083015261365d81613621565b9050919050565b600060408201905061367960008301856131e7565b6136866020830184612a72565b9392505050565b6000815461369a81612e2f565b6136a48186612c89565b945060018216600081146136bf57600181146136d457613707565b60ff1983168652811515820286019350613707565b6136dd85612e60565b60005b838110156136ff578154818901526001820191506020810190506136e0565b838801955050505b50505092915050565b600061371c828461368d565b915081905092915050565b7f5265717565737465642042616e6b206973206e6f7420617574686f72697a656460008201527f20746f2072656d6f7665207468697320637573746f6d6572206173204b59432060208201527f6973206e6f7420696e6974696174656420627920796f75000000000000000000604082015250565b60006137a96057836129f2565b91506137b482613727565b606082019050919050565b600060208201905081810360008301526137d88161379c565b9050919050565b600060208201905081810360008301526137f98184612a2d565b90509291505056fea2646970667358221220a73d7228c2c1a6a8b2818ed3fe7c07fbf2044925c33a77fddcfe46b9709dc4ae64736f6c63430008110033",
  "linkReferences": {},
  "deployedLinkReferences": {}
}